{
  "contractName": "LibRoyalties2981",
  "abi": [
    {
      "inputs": [
        {
          "internalType": "address",
          "name": "to",
          "type": "address"
        },
        {
          "internalType": "uint256",
          "name": "amount",
          "type": "uint256"
        }
      ],
      "name": "calculateRoyalties",
      "outputs": [
        {
          "components": [
            {
              "internalType": "address payable",
              "name": "account",
              "type": "address"
            },
            {
              "internalType": "uint96",
              "name": "value",
              "type": "uint96"
            }
          ],
          "internalType": "struct LibPart.Part[]",
          "name": "",
          "type": "tuple[]"
        }
      ],
      "stateMutability": "pure",
      "type": "function"
    }
  ],
  "bytecode": "0x6102de61003a600b82828239805160001a60731461002d57634e487b7160e01b600052600060045260246000fd5b30600052607381538281f3fe73000000000000000000000000000000000000000030146080604052600436106100355760003560e01c806375ef76341461003a575b600080fd5b61004d6100483660046101a5565b610063565b60405161005a91906101dd565b60405180910390f35b6060808260000361007557905061019f565b6000620f4240610086856064610243565b6100909190610270565b61009b906064610243565b905061271081106100f25760405162461bcd60e51b815260206004820152601960248201527f526f79616c7469657320323938312c207468616e203130302500000000000000604482015260640160405180910390fd5b60408051600180825281830190925290816020015b6040805180820190915260008082526020820152815260200190600190039081610107579050509150848260008151811061014457610144610292565b6020026020010151600001906001600160a01b031690816001600160a01b031681525050808260008151811061017c5761017c610292565b6020908102919091018101516bffffffffffffffffffffffff9092169101525090505b92915050565b600080604083850312156101b857600080fd5b82356001600160a01b03811681146101cf57600080fd5b946020939093013593505050565b602080825282518282018190526000919060409081850190868401855b8281101561023657815180516001600160a01b031685528601516bffffffffffffffffffffffff168685015292840192908501906001016101fa565b5091979650505050505050565b600081600019048311821515161561026b57634e487b7160e01b600052601160045260246000fd5b500290565b60008261028d57634e487b7160e01b600052601260045260246000fd5b500490565b634e487b7160e01b600052603260045260246000fdfea26469706673582212201543a06ce453791fea066c104d8f4fe3774e709dedba79d898d5d0dd702202e264736f6c634300080e0033",
  "immutableReferences": {},
  "source": "// SPDX-License-Identifier: MIT\n\npragma solidity >=0.6.2 ^0.8.0;\n\nimport \"./LibPart.sol\";\n\nlibrary LibRoyalties2981 {\n    /*\n     * https://eips.ethereum.org/EIPS/eip-2981: bytes4 private constant _INTERFACE_ID_ERC2981 = 0x2a55205a;\n     */\n    bytes4 constant _INTERFACE_ID_ROYALTIES = 0x2a55205a;\n    uint96 constant _WEIGHT_VALUE = 1000000;\n\n    /*Method for converting amount to percent and forming LibPart*/\n    function calculateRoyalties(address to, uint256 amount) public pure returns (LibPart.Part[] memory) {\n        LibPart.Part[] memory result;\n        if (amount == 0) {\n            return result;\n        }\n        uint256 percent = (amount * 100 / _WEIGHT_VALUE) * 100;\n        require(percent < 10000, \"Royalties 2981, than 100%\");\n        result = new LibPart.Part[](1);\n        result[0].account = payable(to);\n        result[0].value = uint96(percent);\n        return result;\n    }\n}\n",
  "sourcePath": "/Users/scarnes/SimpliX/SimpliNew/contracts/LibRoyalties2981.sol",
  "compiler": {
    "name": "solc",
    "version": "0.8.14+commit.80d49f37.Emscripten.clang"
  },
  "schemaVersion": "3.4.7",
  "updatedAt": "2022-06-08T02:55:06.983Z",
  "devdoc": {
    "kind": "dev",
    "methods": {},
    "version": 1
  },
  "userdoc": {
    "kind": "user",
    "methods": {},
    "version": 1
  }
}