{
  "contractName": "NFT",
  "abi": [
    {
      "inputs": [
        {
          "internalType": "address",
          "name": "marketplaceAddress",
          "type": "address"
        }
      ],
      "stateMutability": "nonpayable",
      "type": "constructor"
    },
    {
      "anonymous": false,
      "inputs": [
        {
          "indexed": true,
          "internalType": "address",
          "name": "owner",
          "type": "address"
        },
        {
          "indexed": true,
          "internalType": "address",
          "name": "approved",
          "type": "address"
        },
        {
          "indexed": true,
          "internalType": "uint256",
          "name": "tokenId",
          "type": "uint256"
        }
      ],
      "name": "Approval",
      "type": "event"
    },
    {
      "anonymous": false,
      "inputs": [
        {
          "indexed": true,
          "internalType": "address",
          "name": "owner",
          "type": "address"
        },
        {
          "indexed": true,
          "internalType": "address",
          "name": "operator",
          "type": "address"
        },
        {
          "indexed": false,
          "internalType": "bool",
          "name": "approved",
          "type": "bool"
        }
      ],
      "name": "ApprovalForAll",
      "type": "event"
    },
    {
      "anonymous": false,
      "inputs": [
        {
          "indexed": true,
          "internalType": "address",
          "name": "previousOwner",
          "type": "address"
        },
        {
          "indexed": true,
          "internalType": "address",
          "name": "newOwner",
          "type": "address"
        }
      ],
      "name": "OwnershipTransferred",
      "type": "event"
    },
    {
      "anonymous": false,
      "inputs": [
        {
          "indexed": true,
          "internalType": "address",
          "name": "from",
          "type": "address"
        },
        {
          "indexed": true,
          "internalType": "address",
          "name": "to",
          "type": "address"
        },
        {
          "indexed": true,
          "internalType": "uint256",
          "name": "tokenId",
          "type": "uint256"
        }
      ],
      "name": "Transfer",
      "type": "event"
    },
    {
      "inputs": [
        {
          "internalType": "address",
          "name": "to",
          "type": "address"
        },
        {
          "internalType": "uint256",
          "name": "tokenId",
          "type": "uint256"
        }
      ],
      "name": "approve",
      "outputs": [],
      "stateMutability": "nonpayable",
      "type": "function"
    },
    {
      "inputs": [
        {
          "internalType": "address",
          "name": "owner",
          "type": "address"
        }
      ],
      "name": "balanceOf",
      "outputs": [
        {
          "internalType": "uint256",
          "name": "",
          "type": "uint256"
        }
      ],
      "stateMutability": "view",
      "type": "function"
    },
    {
      "inputs": [
        {
          "internalType": "uint256",
          "name": "tokenId",
          "type": "uint256"
        }
      ],
      "name": "getApproved",
      "outputs": [
        {
          "internalType": "address",
          "name": "",
          "type": "address"
        }
      ],
      "stateMutability": "view",
      "type": "function"
    },
    {
      "inputs": [
        {
          "internalType": "address",
          "name": "owner",
          "type": "address"
        },
        {
          "internalType": "address",
          "name": "operator",
          "type": "address"
        }
      ],
      "name": "isApprovedForAll",
      "outputs": [
        {
          "internalType": "bool",
          "name": "",
          "type": "bool"
        }
      ],
      "stateMutability": "view",
      "type": "function"
    },
    {
      "inputs": [],
      "name": "name",
      "outputs": [
        {
          "internalType": "string",
          "name": "",
          "type": "string"
        }
      ],
      "stateMutability": "view",
      "type": "function"
    },
    {
      "inputs": [],
      "name": "owner",
      "outputs": [
        {
          "internalType": "address",
          "name": "",
          "type": "address"
        }
      ],
      "stateMutability": "view",
      "type": "function"
    },
    {
      "inputs": [
        {
          "internalType": "uint256",
          "name": "tokenId",
          "type": "uint256"
        }
      ],
      "name": "ownerOf",
      "outputs": [
        {
          "internalType": "address",
          "name": "",
          "type": "address"
        }
      ],
      "stateMutability": "view",
      "type": "function"
    },
    {
      "inputs": [],
      "name": "renounceOwnership",
      "outputs": [],
      "stateMutability": "nonpayable",
      "type": "function"
    },
    {
      "inputs": [
        {
          "internalType": "address",
          "name": "from",
          "type": "address"
        },
        {
          "internalType": "address",
          "name": "to",
          "type": "address"
        },
        {
          "internalType": "uint256",
          "name": "tokenId",
          "type": "uint256"
        }
      ],
      "name": "safeTransferFrom",
      "outputs": [],
      "stateMutability": "nonpayable",
      "type": "function"
    },
    {
      "inputs": [
        {
          "internalType": "address",
          "name": "from",
          "type": "address"
        },
        {
          "internalType": "address",
          "name": "to",
          "type": "address"
        },
        {
          "internalType": "uint256",
          "name": "tokenId",
          "type": "uint256"
        },
        {
          "internalType": "bytes",
          "name": "_data",
          "type": "bytes"
        }
      ],
      "name": "safeTransferFrom",
      "outputs": [],
      "stateMutability": "nonpayable",
      "type": "function"
    },
    {
      "inputs": [
        {
          "internalType": "address",
          "name": "operator",
          "type": "address"
        },
        {
          "internalType": "bool",
          "name": "approved",
          "type": "bool"
        }
      ],
      "name": "setApprovalForAll",
      "outputs": [],
      "stateMutability": "nonpayable",
      "type": "function"
    },
    {
      "inputs": [
        {
          "internalType": "bytes4",
          "name": "interfaceId",
          "type": "bytes4"
        }
      ],
      "name": "supportsInterface",
      "outputs": [
        {
          "internalType": "bool",
          "name": "",
          "type": "bool"
        }
      ],
      "stateMutability": "view",
      "type": "function"
    },
    {
      "inputs": [],
      "name": "symbol",
      "outputs": [
        {
          "internalType": "string",
          "name": "",
          "type": "string"
        }
      ],
      "stateMutability": "view",
      "type": "function"
    },
    {
      "inputs": [
        {
          "internalType": "uint256",
          "name": "tokenId",
          "type": "uint256"
        }
      ],
      "name": "tokenURI",
      "outputs": [
        {
          "internalType": "string",
          "name": "",
          "type": "string"
        }
      ],
      "stateMutability": "view",
      "type": "function"
    },
    {
      "inputs": [
        {
          "internalType": "address",
          "name": "from",
          "type": "address"
        },
        {
          "internalType": "address",
          "name": "to",
          "type": "address"
        },
        {
          "internalType": "uint256",
          "name": "tokenId",
          "type": "uint256"
        }
      ],
      "name": "transferFrom",
      "outputs": [],
      "stateMutability": "nonpayable",
      "type": "function"
    },
    {
      "inputs": [
        {
          "internalType": "address",
          "name": "newOwner",
          "type": "address"
        }
      ],
      "name": "transferOwnership",
      "outputs": [],
      "stateMutability": "nonpayable",
      "type": "function"
    },
    {
      "inputs": [
        {
          "internalType": "string",
          "name": "nftTokenURl",
          "type": "string"
        }
      ],
      "name": "createNFtToken",
      "outputs": [
        {
          "internalType": "uint256",
          "name": "",
          "type": "uint256"
        }
      ],
      "stateMutability": "nonpayable",
      "type": "function"
    }
  ],
  "bytecode": "0x60806040523480156200001157600080fd5b5060405162001b0338038062001b038339810160408190526200003491620001d9565b6040518060400160405280600681526020016553696d706c6960d01b8152506040518060400160405280600481526020016314d3541360e21b8152506200008a62000084620000df60201b60201c565b620000e3565b81516200009f90600190602085019062000133565b508051620000b590600290602084019062000133565b5050600980546001600160a01b0319166001600160a01b0393909316929092179091555062000247565b3390565b600080546001600160a01b038381166001600160a01b0319831681178455604051919092169283917f8be0079c531659141344cd1fd0a4f28419497f9722a3daafe3b4186f6b6457e09190a35050565b82805462000141906200020b565b90600052602060002090601f016020900481019282620001655760008555620001b0565b82601f106200018057805160ff1916838001178555620001b0565b82800160010185558215620001b0579182015b82811115620001b057825182559160200191906001019062000193565b50620001be929150620001c2565b5090565b5b80821115620001be5760008155600101620001c3565b600060208284031215620001ec57600080fd5b81516001600160a01b03811681146200020457600080fd5b9392505050565b600181811c908216806200022057607f821691505b6020821081036200024157634e487b7160e01b600052602260045260246000fd5b50919050565b6118ac80620002576000396000f3fe608060405234801561001057600080fd5b506004361061010b5760003560e01c8063715018a6116100a2578063b88d4fde11610071578063b88d4fde1461021b578063c87b56dd1461022e578063cb18ee7b14610241578063e985e9c514610254578063f2fde38b1461029057600080fd5b8063715018a6146101e75780638da5cb5b146101ef57806395d89b4114610200578063a22cb4651461020857600080fd5b806323b872dd116100de57806323b872dd1461018d57806342842e0e146101a05780636352211e146101b357806370a08231146101c657600080fd5b806301ffc9a71461011057806306fdde0314610138578063081812fc1461014d578063095ea7b314610178575b600080fd5b61012361011e366004611360565b6102a3565b60405190151581526020015b60405180910390f35b6101406102f5565b60405161012f91906113d5565b61016061015b3660046113e8565b610387565b6040516001600160a01b03909116815260200161012f565b61018b61018636600461141d565b610414565b005b61018b61019b366004611447565b610529565b61018b6101ae366004611447565b61055a565b6101606101c13660046113e8565b610575565b6101d96101d4366004611483565b6105ec565b60405190815260200161012f565b61018b610673565b6000546001600160a01b0316610160565b6101406106d9565b61018b61021636600461149e565b6106e8565b61018b610229366004611566565b6106f7565b61014061023c3660046113e8565b61072f565b6101d961024f3660046115e2565b6108a5565b61012361026236600461162b565b6001600160a01b03918216600090815260066020908152604080832093909416825291909152205460ff1690565b61018b61029e366004611483565b6108ed565b60006001600160e01b031982166380ac58cd60e01b14806102d457506001600160e01b03198216635b5e139f60e01b145b806102ef57506301ffc9a760e01b6001600160e01b03198316145b92915050565b6060600180546103049061165e565b80601f01602080910402602001604051908101604052809291908181526020018280546103309061165e565b801561037d5780601f106103525761010080835404028352916020019161037d565b820191906000526020600020905b81548152906001019060200180831161036057829003601f168201915b5050505050905090565b6000610392826109b8565b6103f85760405162461bcd60e51b815260206004820152602c60248201527f4552433732313a20617070726f76656420717565727920666f72206e6f6e657860448201526b34b9ba32b73a103a37b5b2b760a11b60648201526084015b60405180910390fd5b506000908152600560205260409020546001600160a01b031690565b600061041f82610575565b9050806001600160a01b0316836001600160a01b03160361048c5760405162461bcd60e51b815260206004820152602160248201527f4552433732313a20617070726f76616c20746f2063757272656e74206f776e656044820152603960f91b60648201526084016103ef565b336001600160a01b03821614806104a857506104a88133610262565b61051a5760405162461bcd60e51b815260206004820152603860248201527f4552433732313a20617070726f76652063616c6c6572206973206e6f74206f7760448201527f6e6572206e6f7220617070726f76656420666f7220616c6c000000000000000060648201526084016103ef565b61052483836109d5565b505050565b6105333382610a43565b61054f5760405162461bcd60e51b81526004016103ef90611698565b610524838383610b2c565b610524838383604051806020016040528060008152506106f7565b6000818152600360205260408120546001600160a01b0316806102ef5760405162461bcd60e51b815260206004820152602960248201527f4552433732313a206f776e657220717565727920666f72206e6f6e657869737460448201526832b73a103a37b5b2b760b91b60648201526084016103ef565b60006001600160a01b0382166106575760405162461bcd60e51b815260206004820152602a60248201527f4552433732313a2062616c616e636520717565727920666f7220746865207a65604482015269726f206164647265737360b01b60648201526084016103ef565b506001600160a01b031660009081526004602052604090205490565b6000546001600160a01b031633146106cd5760405162461bcd60e51b815260206004820181905260248201527f4f776e61626c653a2063616c6c6572206973206e6f7420746865206f776e657260448201526064016103ef565b6106d76000610cc8565b565b6060600280546103049061165e565b6106f3338383610d18565b5050565b6107013383610a43565b61071d5760405162461bcd60e51b81526004016103ef90611698565b61072984848484610de6565b50505050565b606061073a826109b8565b6107a05760405162461bcd60e51b815260206004820152603160248201527f45524337323155524953746f726167653a2055524920717565727920666f72206044820152703737b732bc34b9ba32b73a103a37b5b2b760791b60648201526084016103ef565b600082815260076020526040812080546107b99061165e565b80601f01602080910402602001604051908101604052809291908181526020018280546107e59061165e565b80156108325780601f1061080757610100808354040283529160200191610832565b820191906000526020600020905b81548152906001019060200180831161081557829003601f168201915b50505050509050600061085060408051602081019091526000815290565b90508051600003610862575092915050565b81511561089457808260405160200161087c9291906116e9565b60405160208183030381529060405292505050919050565b61089d84610e19565b949350505050565b60006108b5600880546001019055565b60006108c060085490565b90506108cc3382610ef1565b6108d68184611024565b6009546102ef906001600160a01b031660016106e8565b6000546001600160a01b031633146109475760405162461bcd60e51b815260206004820181905260248201527f4f776e61626c653a2063616c6c6572206973206e6f7420746865206f776e657260448201526064016103ef565b6001600160a01b0381166109ac5760405162461bcd60e51b815260206004820152602660248201527f4f776e61626c653a206e6577206f776e657220697320746865207a65726f206160448201526564647265737360d01b60648201526084016103ef565b6109b581610cc8565b50565b6000908152600360205260409020546001600160a01b0316151590565b600081815260056020526040902080546001600160a01b0319166001600160a01b0384169081179091558190610a0a82610575565b6001600160a01b03167f8c5be1e5ebec7d5bd14f71427d1e84f3dd0314c0f7b2291e5b200ac8c7c3b92560405160405180910390a45050565b6000610a4e826109b8565b610aaf5760405162461bcd60e51b815260206004820152602c60248201527f4552433732313a206f70657261746f7220717565727920666f72206e6f6e657860448201526b34b9ba32b73a103a37b5b2b760a11b60648201526084016103ef565b6000610aba83610575565b9050806001600160a01b0316846001600160a01b03161480610b0157506001600160a01b0380821660009081526006602090815260408083209388168352929052205460ff165b8061089d5750836001600160a01b0316610b1a84610387565b6001600160a01b031614949350505050565b826001600160a01b0316610b3f82610575565b6001600160a01b031614610ba35760405162461bcd60e51b815260206004820152602560248201527f4552433732313a207472616e736665722066726f6d20696e636f72726563742060448201526437bbb732b960d91b60648201526084016103ef565b6001600160a01b038216610c055760405162461bcd60e51b8152602060048201526024808201527f4552433732313a207472616e7366657220746f20746865207a65726f206164646044820152637265737360e01b60648201526084016103ef565b610c106000826109d5565b6001600160a01b0383166000908152600460205260408120805460019290610c3990849061172e565b90915550506001600160a01b0382166000908152600460205260408120805460019290610c67908490611745565b909155505060008181526003602052604080822080546001600160a01b0319166001600160a01b0386811691821790925591518493918716917fddf252ad1be2c89b69c2b068fc378daa952ba7f163c4a11628f55a4df523b3ef91a4505050565b600080546001600160a01b038381166001600160a01b0319831681178455604051919092169283917f8be0079c531659141344cd1fd0a4f28419497f9722a3daafe3b4186f6b6457e09190a35050565b816001600160a01b0316836001600160a01b031603610d795760405162461bcd60e51b815260206004820152601960248201527f4552433732313a20617070726f766520746f2063616c6c65720000000000000060448201526064016103ef565b6001600160a01b03838116600081815260066020908152604080832094871680845294825291829020805460ff191686151590811790915591519182527f17307eab39ab6107e8899845ad3d59bd9653f200f220920489ca2b5937696c31910160405180910390a3505050565b610df1848484610b2c565b610dfd848484846110af565b6107295760405162461bcd60e51b81526004016103ef9061175d565b6060610e24826109b8565b610e885760405162461bcd60e51b815260206004820152602f60248201527f4552433732314d657461646174613a2055524920717565727920666f72206e6f60448201526e3732bc34b9ba32b73a103a37b5b2b760891b60648201526084016103ef565b6000610e9f60408051602081019091526000815290565b90506000815111610ebf5760405180602001604052806000815250610eea565b80610ec9846111b0565b604051602001610eda9291906116e9565b6040516020818303038152906040525b9392505050565b6001600160a01b038216610f475760405162461bcd60e51b815260206004820181905260248201527f4552433732313a206d696e7420746f20746865207a65726f206164647265737360448201526064016103ef565b610f50816109b8565b15610f9d5760405162461bcd60e51b815260206004820152601c60248201527f4552433732313a20746f6b656e20616c7265616479206d696e7465640000000060448201526064016103ef565b6001600160a01b0382166000908152600460205260408120805460019290610fc6908490611745565b909155505060008181526003602052604080822080546001600160a01b0319166001600160a01b03861690811790915590518392907fddf252ad1be2c89b69c2b068fc378daa952ba7f163c4a11628f55a4df523b3ef908290a45050565b61102d826109b8565b6110905760405162461bcd60e51b815260206004820152602e60248201527f45524337323155524953746f726167653a2055524920736574206f66206e6f6e60448201526d32bc34b9ba32b73a103a37b5b2b760911b60648201526084016103ef565b60008281526007602090815260409091208251610524928401906112b1565b60006001600160a01b0384163b156111a557604051630a85bd0160e11b81526001600160a01b0385169063150b7a02906110f39033908990889088906004016117af565b6020604051808303816000875af192505050801561112e575060408051601f3d908101601f1916820190925261112b918101906117ec565b60015b61118b573d80801561115c576040519150601f19603f3d011682016040523d82523d6000602084013e611161565b606091505b5080516000036111835760405162461bcd60e51b81526004016103ef9061175d565b805181602001fd5b6001600160e01b031916630a85bd0160e11b14905061089d565b506001949350505050565b6060816000036111d75750506040805180820190915260018152600360fc1b602082015290565b8160005b811561120157806111eb81611809565b91506111fa9050600a83611838565b91506111db565b60008167ffffffffffffffff81111561121c5761121c6114da565b6040519080825280601f01601f191660200182016040528015611246576020820181803683370190505b5090505b841561089d5761125b60018361172e565b9150611268600a8661184c565b611273906030611745565b60f81b81838151811061128857611288611860565b60200101906001600160f81b031916908160001a9053506112aa600a86611838565b945061124a565b8280546112bd9061165e565b90600052602060002090601f0160209004810192826112df5760008555611325565b82601f106112f857805160ff1916838001178555611325565b82800160010185558215611325579182015b8281111561132557825182559160200191906001019061130a565b50611331929150611335565b5090565b5b808211156113315760008155600101611336565b6001600160e01b0319811681146109b557600080fd5b60006020828403121561137257600080fd5b8135610eea8161134a565b60005b83811015611398578181015183820152602001611380565b838111156107295750506000910152565b600081518084526113c181602086016020860161137d565b601f01601f19169290920160200192915050565b602081526000610eea60208301846113a9565b6000602082840312156113fa57600080fd5b5035919050565b80356001600160a01b038116811461141857600080fd5b919050565b6000806040838503121561143057600080fd5b61143983611401565b946020939093013593505050565b60008060006060848603121561145c57600080fd5b61146584611401565b925061147360208501611401565b9150604084013590509250925092565b60006020828403121561149557600080fd5b610eea82611401565b600080604083850312156114b157600080fd5b6114ba83611401565b9150602083013580151581146114cf57600080fd5b809150509250929050565b634e487b7160e01b600052604160045260246000fd5b600067ffffffffffffffff8084111561150b5761150b6114da565b604051601f8501601f19908116603f01168101908282118183101715611533576115336114da565b8160405280935085815286868601111561154c57600080fd5b858560208301376000602087830101525050509392505050565b6000806000806080858703121561157c57600080fd5b61158585611401565b935061159360208601611401565b925060408501359150606085013567ffffffffffffffff8111156115b657600080fd5b8501601f810187136115c757600080fd5b6115d6878235602084016114f0565b91505092959194509250565b6000602082840312156115f457600080fd5b813567ffffffffffffffff81111561160b57600080fd5b8201601f8101841361161c57600080fd5b61089d848235602084016114f0565b6000806040838503121561163e57600080fd5b61164783611401565b915061165560208401611401565b90509250929050565b600181811c9082168061167257607f821691505b60208210810361169257634e487b7160e01b600052602260045260246000fd5b50919050565b60208082526031908201527f4552433732313a207472616e736665722063616c6c6572206973206e6f74206f6040820152701ddb995c881b9bdc88185c1c1c9bdd9959607a1b606082015260800190565b600083516116fb81846020880161137d565b83519083019061170f81836020880161137d565b01949350505050565b634e487b7160e01b600052601160045260246000fd5b60008282101561174057611740611718565b500390565b6000821982111561175857611758611718565b500190565b60208082526032908201527f4552433732313a207472616e7366657220746f206e6f6e20455243373231526560408201527131b2b4bb32b91034b6b83632b6b2b73a32b960711b606082015260800190565b6001600160a01b03858116825284166020820152604081018390526080606082018190526000906117e2908301846113a9565b9695505050505050565b6000602082840312156117fe57600080fd5b8151610eea8161134a565b60006001820161181b5761181b611718565b5060010190565b634e487b7160e01b600052601260045260246000fd5b60008261184757611847611822565b500490565b60008261185b5761185b611822565b500690565b634e487b7160e01b600052603260045260246000fdfea264697066735822122087700d4997d061c9868bd141642cabca5533fd9cd5a85ed925bb80642d3db62064736f6c634300080e0033",
  "immutableReferences": {},
  "source": "// SPDX-License-Identifier: MIT\npragma solidity >=0.4.22 <0.9.0;\n\nimport \"@openzeppelin/contracts/utils/Counters.sol\";\nimport \"@openzeppelin/contracts/token/ERC721/extensions/ERC721URIStorage.sol\";\nimport \"@openzeppelin/contracts/token/ERC721/extensions/ERC721Enumerable.sol\";\nimport \"@openzeppelin/contracts/token/ERC721/ERC721.sol\";\nimport \"@openzeppelin/contracts/access/Ownable.sol\";\n\n\ncontract NFT is Ownable, ERC721URIStorage{\n\n    using Counters for Counters.Counter;\n    Counters.Counter private nftTokenId;\n\n\n    address contractAddress;\n\n    bytes4 private constant _INTERFACE_ID_ERC2981 = 0x2a55205a;\n\n    constructor(address marketplaceAddress)ERC721(\"Simpli\",\"SMPL\"){\n\n        contractAddress = marketplaceAddress;\n\n    }\n\n    function createNFtToken(string memory nftTokenURl)public  returns (uint256){\n        nftTokenId.increment();\n        uint256 id = nftTokenId.current();\n        _mint(msg.sender,id);\n\n        _setTokenURI(id,nftTokenURl);\n   \n        setApprovalForAll  (contractAddress,true);\n    \n\n        return id;\n    \n    }\n\n\n\n}",
  "sourcePath": "/Users/scarnes/SimpliX/SimpliNew/contracts/NFT.sol",
  "compiler": {
    "name": "solc",
    "version": "0.8.14+commit.80d49f37.Emscripten.clang"
  },
  "schemaVersion": "3.4.7",
  "updatedAt": "2022-06-08T02:55:07.000Z",
  "devdoc": {
    "kind": "dev",
    "methods": {
      "approve(address,uint256)": {
        "details": "See {IERC721-approve}."
      },
      "balanceOf(address)": {
        "details": "See {IERC721-balanceOf}."
      },
      "getApproved(uint256)": {
        "details": "See {IERC721-getApproved}."
      },
      "isApprovedForAll(address,address)": {
        "details": "See {IERC721-isApprovedForAll}."
      },
      "name()": {
        "details": "See {IERC721Metadata-name}."
      },
      "owner()": {
        "details": "Returns the address of the current owner."
      },
      "ownerOf(uint256)": {
        "details": "See {IERC721-ownerOf}."
      },
      "renounceOwnership()": {
        "details": "Leaves the contract without owner. It will not be possible to call `onlyOwner` functions anymore. Can only be called by the current owner. NOTE: Renouncing ownership will leave the contract without an owner, thereby removing any functionality that is only available to the owner."
      },
      "safeTransferFrom(address,address,uint256)": {
        "details": "See {IERC721-safeTransferFrom}."
      },
      "safeTransferFrom(address,address,uint256,bytes)": {
        "details": "See {IERC721-safeTransferFrom}."
      },
      "setApprovalForAll(address,bool)": {
        "details": "See {IERC721-setApprovalForAll}."
      },
      "supportsInterface(bytes4)": {
        "details": "See {IERC165-supportsInterface}."
      },
      "symbol()": {
        "details": "See {IERC721Metadata-symbol}."
      },
      "tokenURI(uint256)": {
        "details": "See {IERC721Metadata-tokenURI}."
      },
      "transferFrom(address,address,uint256)": {
        "details": "See {IERC721-transferFrom}."
      },
      "transferOwnership(address)": {
        "details": "Transfers ownership of the contract to a new account (`newOwner`). Can only be called by the current owner."
      }
    },
    "version": 1
  },
  "userdoc": {
    "kind": "user",
    "methods": {},
    "version": 1
  }
}